:100000000C9434000C943E000C943E000C943E0082
:100010000C943E000C943E000C943E000C943E0068
:100020000C943E000C943E000C943E000C943E0058
:100030000C943E000C943E000C943E000C943E0048
:100040000C943E000C943E000C943E000C943E0038
:100050000C943E000C943E000C943E000C943E0028
:100060000C943E000C943E0011241FBECFEFD8E04C
:10007000DEBFCDBF0E9440000C945D000C940000D8
:100080001AB8259A39B189B1982F987089B18071C1
:1000900029B1207232FD08C0992319F0211101C045
:1000A000811180E285B9EECF8823E1F32223C9F3E1
:0E00B0009111F7CF80E085B9E5CFF894FFCF2E
:00000001FF
